:020000040800F2
:1000000020050020050100087F110008E30F00080B
:100010007D110008710100080F14000800000000A5
:100020000000000000000000000000008311000834
:10003000730100080000000081110008851100080C
:100040001F0100081F0100081F0100081F01000810
:100050001F0100081F0100081F0100081F01000800
:10006000750100087B010008810100081F010008DC
:100070001F0100081F0100081F0100081F010008E0
:100080001F0100081F0100081F0100081F010008D0
:100090001F0100081F0100081F0100088701000858
:1000A0001F0100081F0100081F010008CD110008F2
:1000B0001F0100081F0100081F0100081F010008A0
:1000C0001F0100081F0100081F0100081F01000890
:1000D0001F0100081F0100081F0100081F01000880
:1000E0001F0100081F0100081F010008DFF810D0E1
:1000F00000F02CF80048004769140008AFF30080B6
:10010000200500200648804706480047FEE7FEE736
:10011000FEE7FEE7FEE7FEE7FEE7FEE7FEE7FEE7B7
:10012000CB110008ED000008D2B201E000F8012B6D
:10013000491EFBD270470022F6E710B513460A4667
:1001400004461946FFF7F0FF204610BD064C074D48
:1001500006E0E06840F0010394E807009847103497
:10016000AC42F6D3FFF7C6FF401600086016000841
:10017000FEE77047042000F071B8082000F06EB868
:10018000102000F06BB810B5202000F067F8BDE833
:100190001040402000F062B8F8B5264C0125264EEC
:1001A00004281BD0082824D010282DD0202836D091
:1001B000402812D1A06940F40060A061A069042128
:1001C00000F4006000901DA001F0AEF901F028FAE3
:1001D000A06920F40060A0613570F8BDA06940F40A
:1001E0000060A061A069032100F40060009015A0E8
:1001F000EAE7A06940F40060A061A069032100F46F
:100200000060009010A0DFE7A06940F40060A061EA
:10021000A069052100F4006000900CA0D4E7A0695B
:1002200040F40060A061A069042100F40060009027
:1002300008A0C9E700100240C000002046697665AA
:10024000000000004F6E650054776F0054687265BF
:1002500065000000466F757200000000044910B58B
:100260000A68024202D00860FFF796FF10BD000046
:10027000140401402DE9F84FDFF8B891002409F18A
:10028000040A0AF1040B23460F270BF1040EC9E000
:100290000125A5402A40AA427DD1674ED1F804C06D
:1002A000ACEB0608B44532D014DCBCF1030F3AD0F5
:1002B00009DCBCF1000F2AD0BCF1010F1CD0BCF14D
:1002C000020F31D11DE0BCF1110F17D0BCF1120F9C
:1002D0002AD119E0B8F5881F19D006DCB8F5803F9F
:1002E00015D0B8F5801F1FD111E0B8F5001F0ED052
:1002F000B8F5041F18D10AE0CB6815E0CB681B1DC8
:1003000012E0CB6808330FE0CB680C330CE08B684D
:100310002BB1012B4FF0080303D0456104E0042307
:1003200002E0056100E00023FF2A01D8064601E053
:1003300000F104064FEA840501D9A5F12005D6F89D
:10034000008007FA05FC28EA0C0803FA05F548EADC
:100350000508C6F800804D68ED0062D5374DAE69DE
:1003600046F00106AE61AD6924F0030605F0010513
:100370000095334D06EB050CDCF80850A607360F48
:1003800007FA06F825EA0805DFF8B880404503D1EA
:100390004FF0000817E044E0DFF8AC80404502D1A0
:1003A0004FF001080FE0DFF8A480404502D14FF084
:1003B000020808E0DFF89880404502D14FF00308BA
:1003C00001E04FF0040808FA06F848EA0508CCF8FE
:1003D00008804D68D9F80060ED034D4601D51643FD
:1003E00000E096432E604D68DAF80060AD03554694
:1003F00001D5164300E096432E604D68DBF800609F
:10040000ED025D4601D5164300E096432E604D682F
:10041000DEF80060AD02754601D5164300E0964354
:100420002E60641C0D682A46E5407FF431AFBDE8BC
:10043000F88F00000004014000001110001002407D
:100440000000014000080140000C01400010014084
:10045000001401400AB1016170470904FBE7000084
:100460000148806870470000C4000020024881688D
:100470000278114481607047C4000020074810B51D
:10048000016841F010010160032000F075F80020C0
:1004900000F006F800F024F8002010BD0020024013
:1004A00070B50D4D04464FF47A712878B1FBF0F029
:1004B0000A490968B1FBF0F000F0DCFA48B9102CE9
:1004C00007D200222146501E00F036F800206C6052
:1004D00070BD012070BD0000C4000020D0000020CD
:1004E0000C4808B5816941F001018161816901F021
:1004F00001010091C16941F08051C161C06900F002
:10050000805000900448416821F0E06141F00071A2
:10051000416008BD0010024000000140002809DBD6
:1005200000F01F02012191404009800000F1E0200D
:10053000C0F8001170470000F0B40E4B1B680C4669
:10054000C3F30223C3F10705042D00D90425191DA7
:10055000072901D2002300E0DB1E012606FA05F17F
:10056000491E214099409E40761E16403143F0BC02
:1005700000F04EBF0CED00E0064900F007020868ED
:100580004FF6FF03184040EA0220034A1043086078
:10059000704700000CED00E00000FA050648026814
:1005A00022F004020260012903D040BF20BF20BF17
:1005B000704730BF7047000010ED00E02DE9F047B4
:1005C0000F46050061D0434E306800F00700B84286
:1005D00009D2306820F0070038433060306800F0FE
:1005E0000700B84251D128683B4C810712D540071B
:1005F00003D5606840F4E06060602878000703D5A8
:10060000606840F4605060606068A96820F0F000A5
:10061000084360602878C00728D06868012810D097
:100620002168022810D0890700292EDA616821F09C
:10063000030101436160FFF713FF804641F28839EF
:100640000DE021688903EFE78901EDE7FFF708FF77
:10065000A0EB0801494502D90320BDE8F087606896
:10066000696800F00C00B0EB810FEFD1306800F04A
:100670000700B8420BD9306820F0070038433060DB
:10068000306800F00700B84201D00120E5E7287883
:10069000400705D56068E96820F4E06008436060C1
:1006A0002878000706D56068296920F4605040EA80
:1006B000C100606000F018F86168084AC1F30311D6
:1006C000515CC8400649086006480068FFF7E8FE2C
:1006D0000020C2E70020024000100240301600084F
:1006E000D0000020C800002012A185B00FC98DE8FD
:1006F0000F0014A0144A006804905168134801F0D8
:100700000C03042B10D0082B0ED1C1F38343C90373
:100710001DF803000AD5516804AAC1F34041515C99
:100720000A4A5043B0FBF1F005B07047084948430E
:10073000FAE7000002030405060708090A0B0C0D7E
:100740000E0F1010010200000010024000127A008B
:1007500000093D002DE9F84F040070D02078C04D0D
:10076000C00749D06868C0F38100012807D06868D5
:10077000C0F38100022809D16868C00306D5286843
:10078000800339D560680028E7D035E06068B0F5AF
:10079000803F0BD010B1B0F5A02F11D0286820F405
:1007A00080302860286820F4802002E0286840F427
:1007B00080302860606890B1FFF752FE06460AE07C
:1007C000286840F480202860F0E700BFFFF748FE6B
:1007D000801B642873D828688003F7D50CE0FFF7E6
:1007E0003FFE064605E000BFFFF73AFE801B642887
:1007F000F0D828688003F7D420789A4E80074FF00D
:1008000001094FF0000839D5686810F00C0F07D0C7
:100810006868C0F38100022809D16868C00306D463
:100820002868800714D52069012808D110E02069C4
:10083000B0B1C6F80090FFF713FE074605E00AE1E5
:10084000FFF70EFEC01B0228C4D828688007F7D522
:100850002868616920F0F80040EAC10028600DE0D6
:10086000C6F80080FFF7FCFD074604E0FFF7F8FD3F
:10087000C01B022823D828688007F7D420780007F7
:100880002CD57948A169D9B1C0F80090FFF7E8FDEF
:10089000074604E0FFF7E4FDC01B02280FD8686A92
:1008A0008007F7D571484FF4FA510068B0FBF1F0BA
:1008B000009000BF0098411E0091FAD20EE080E047
:1008C000C0F80080FFF7CCFD074604E0FFF7C8FD45
:1008D000C01B022875D8686A8007F7D420784007C3
:1008E00060D5E8690027C00008D4E86940F080506E
:1008F000E861E869012700F0805000905C480168D9
:10090000C90513D40168834641F480710160FFF783
:10091000A7FD824606E000BFFFF7A2FDA0EB0A009C
:1009200064284ED8DBF80000C005F5D5E068012842
:100930000AD008B1052813D0286A20F001002862E7
:10094000286A20F0040002E0286A40F001002862D2
:10095000E06841F2883B98B1FFF782FD82460BE0E8
:10096000286A40F004002862EEE700BFFFF778FD38
:10097000A0EB0A0159455AD8286A8007F6D50CE041
:10098000FFF76EFD824605E0FFF76AFDA0EB0A0166
:1009900059454CD8286A8007F6D41FB1E86920F081
:1009A0008050E861E06988B36968C1F38101022978
:1009B00044D00228C6F8608004D0FFF751FD0446F9
:1009C00038E034E0FFF74CFD074604E0FFF748FD50
:1009D000C01B02282BD828688001F7D4206AB0F504
:1009E000803F05D16868A16820F400300843686042
:1009F000D4E908010843696821F474110843686068
:100A0000C6F86090FFF72CFD044606E025E000BF25
:100A1000FFF726FD001B022809D828688001F7D5BA
:100A20001BE000BFFFF71CFD001B022802D90320BA
:100A3000BDE8F88F28688001F4D40EE00128F7D0D3
:100A40006868226A00F48031914204D1616A00F43E
:100A50007010884201D00120EAE70020E8E700009A
:100A6000001002400000424280044242D0000020B8
:100A70000070004010B5401EB0F1807F01D301200E
:100A800010BD4FF0E02460610F21601700F0C0FC42
:100A90000020A06107202061002010BD4FF0E02061
:100AA000016921F00201016170477047704710B57C
:100AB00090F83C20012A22D0012280F83C20CA680C
:100AC0008C6822F4407222434C6822F480622243F4
:100AD0000C6822F4006222430C6922F48052224303
:100AE0004C6922F400522243C969002322F4804257
:100AF0000A4301684A6480F83C30002010BD02209F
:100B000010BD000070B590F83C20012A26D00124C9
:100B100080F83C40022280F83D2003685A689D68B6
:100B200022F070060A6832435A600D4B02689A42FE
:100B300008D0B2F1804F05D00A4B9A4202D00A4B3E
:100B40009A4204D1496825F080031943916080F8E6
:100B50003D40002180F83C10084670BD022070BD69
:100B6000002C0140000400400008004010B50400C3
:100B700003D094F83D0010B107E0012010BD002023
:100B800084F83C00204600F01FF8022084F83D0065
:100B9000211D206800F020FB012084F8460084F825
:100BA0003E0084F83F0084F8400084F8410084F857
:100BB000420084F8430084F8440084F8450084F837
:100BC0003D00002010BD000008B500680B498842B8
:100BD00012D10B48816941F4006181618069002272
:100BE00000F40060009001211B20FFF7A5FCBDE888
:100BF00008401B20FFF792BC08BD0000002C0140FC
:100C00000010024070B5044690F83C00012817D04F
:100C1000012584F83C50022084F83D002068826859
:100C200022F0770222F47F4282600868502830D098
:100C30000DDC20284DD005DC98B310283BD148E0CE
:100C4000022070BD302844D0402834D139E06028DB
:100C500028D0702806D0B0F5805F2CD0B0F5005FAA
:100C600029D10AE0CB68D1E90121206800F0F7FA28
:100C70002068816841F0770109E0CB68D1E9012162
:100C8000206800F0ECFA2068816841F480418160BE
:100C900011E0CA684968206800F096FB502120687E
:100CA00007E016E0CA684968206800F09EFB6021F2
:100CB000206800F0DEFA84F83D50002084F83C0003
:100CC00070BDCA684968206800F07EFB402120683A
:100CD000EFE7226801461046EBE7704770B504461F
:100CE000006801694FF00005C943890715D4C16840
:100CF000C943890711D4E91E0161012020772068CA
:100D000080698007204602D0FFF7E7FF04E000F08B
:100D1000BFF8204600F062F9257720680169C943D1
:100D2000490717D4C168C943490713D46FF00401B8
:100D30000161022020772068806910F4407F2046FE
:100D400002D0FFF7CAFF04E000F0A2F8204600F04E
:100D500045F9257720680169C943090716D4C16898
:100D6000C943090712D46FF00801016104202077FC
:100D70002068C0698007204602D0FFF7AEFF04E07C
:100D800000F086F8204600F029F9257720680169EF
:100D9000C943C90617D4C168C943C90613D46FF043
:100DA00010010161082020772068C06910F4407F9D
:100DB000204602D0FFF791FF04E000F069F82046DA
:100DC00000F00CF9257720680169C943C90708D1EB
:100DD000C168C943C90704D1891E0161204600F0DA
:100DE000FEF820680169C943090609D4C168C943EE
:100DF000090605D46FF0800101612046FFF755FE1A
:100E000020680169C943490609D4C168C943490634
:100E100005D46FF040010161204600F0E1F8206840
:100E20000169C94389060BD4C168C943890607D43F
:100E30006FF0200101612046BDE87040FFF736BE2B
:100E400070BD10B5044690F83C0001280AD001207E
:100E500084F83C0042B1042A0AD0082A0CD00C2A9B
:100E600011D10DE0022010BD206800F00BFA0AE05D
:100E7000206800F02FFA06E0206800F057FA02E040
:100E8000206800F07FFA002084F83C0010BD0000CC
:100E900010B5084C084A6188491C6180016891427C
:100EA00006D1007F012803D100F00EFB0120607005
:100EB00010BD0000C0000020002C014010B504004F
:100EC00003D094F83D0010B107E0012010BD0020D0
:100ED00084F83C00204600F01EF8022084F83D0013
:100EE000211D206800F078F9012084F8460084F87C
:100EF0003E0084F83F0084F8400084F8410084F804
:100F0000420084F8430084F8440084F8450084F8E3
:100F10003D00002010BD704710B50446022249B1C3
:100F2000042912D008291CD094F84100012823D0AC
:100F3000012010BD94F83E000128F9D184F83E202C
:100F40002068C26842F0020209E094F83F000128DC
:100F5000EED184F83F202068C26842F00402C260EB
:100F60000EE094F840000128E2D184F84020206887
:100F7000C26842F00802F2E784F841200C2922D02E
:100F80000122206800F05EF911492068884203D1EF
:100F9000426C42F4004242642068884208D0B0F1BA
:100FA000804F05D00B49884202D00B49884204D1BA
:100FB000816801F00701062903D0016841F00101B1
:100FC0000160002010BD2068C26842F01002C6E730
:100FD000002C0140000400400008004070477047AA
:100FE0007047FEE7F0B585B00020009001900290B8
:100FF00003903648816941F010018161816901F0F7
:1010000010010491816941F020018161816901F041
:1010100020010491816941F004018161816901F03D
:1010200004010491816941F0080181618069284EC1
:1010300000F008004FF4005404900022214630468E
:10104000FFF708FA234F002208213846FFF702FA7B
:101050000125CDE9004502240294694630460394F7
:10106000FFF708F97C2000901B48CDE9010569468F
:101070001A48FFF7FFF808200090CDE901546946AF
:1010800038460394FFF7F6F8002202210820FFF704
:1010900053FA0820FFF742FA002202210920FFF745
:1010A0004BFA0920FFF73AFA002202210A20FFF743
:1010B00043FA0A20FFF732FA002202211720FFF735
:1010C0003BFA1720FFF72AFA05B0F0BD00100240E6
:1010D00000100140000C01400000211000080140F8
:1010E00010B596B000240F94109411941294139498
:1010F0001C2108A81494FFF71EF820216846FFF76A
:101100001AF81D481B4901600721C0E90114792123
:10111000C0E9031444618461FFF728FD4FF4805057
:101120000F900FA91448FFF76DFD1348FFF7C6FE97
:10113000139413A910481494FFF7E4FC089409943D
:101140000A940B940C940D94002208A90A480E945A
:10115000FFF777FE00944FF40050CDE9044002946D
:1011600001940394694604480794FFF7A0FC16B065
:1011700010BD0000002C0140D4000020FEE77047A5
:1011800070477047FFF772B910B590B028216846D4
:10119000FEF7D1FF14210AA8FEF7CDFF0220009030
:1011A0000120049010200024059007946846FFF762
:1011B000D1FA0F20CDE90A040C940D9400210AA85D
:1011C0000E94FFF7FBF910B010BD70470148FFF710
:1011D00085BD0000D4000020F0B50268164B174C06
:1011E000174D4FF08047984205D0B84203D0A04237
:1011F00001D0A84203D122F070064A6832439842D7
:1012000005D0B84203D0A04201D0A84203D122F4B5
:101210004074CA6822434C6922F080022243026073
:101220008A68C2620A688262984201D109690163D0
:1012300001214161F0BD0000002C0140000400408C
:101240000008004010B501F01F030121046A994015
:101250008C430462016A9A401143016210BD10B5CB
:10126000846842EA032224F47F440A4322438260D2
:1012700010BD826822F070020A4342F007018160CB
:101280007047000030B5026A22F001020262026A71
:101290004368846924F073050C682C4322F002052E
:1012A0008A682A430A4DA8420BD122F00805CA6871
:1012B00023F440732A434D6922F004021D438B69D5
:1012C0002B434360846149684163026230BD000082
:1012D000002C014030B5026A22F010020262026A5C
:1012E000436884690D6824F4E64444EA05248D6863
:1012F00022F0200242EA05120B4DA8420ED1CD6821
:1013000022F0800242EA05124D6923F4406343EA69
:1013100085038D6922F0400243EA850343608461BE
:1013200049688163026230BD002C014030B5026A19
:1013300022F480720262036A4268C46923F4007373
:1013400024F073050C682C438D6843EA05230C4D8B
:10135000A8420ED1CD6823F4006343EA05234D690A
:1013600022F4405242EA05128D6923F4806342EA76
:1013700005124260C4614968C163036230BD000068
:10138000002C014030B5026A22F480520262046AE5
:101390004268C3690D6823F4E64343EA05238D6878
:1013A00024F4005444EA0534064DA84204D14D69A2
:1013B00022F4804242EA85124260C36149680164B6
:1013C000046230BD002C014010B5036A046A24F0A9
:1013D00001040462846924F0F00444EA021423F056
:1013E0000A020A438461026210BD10B5036A23F049
:1013F000100303628369046A23F4704343EA0232F0
:1014000024F0A00343EA01118261016210BDFEE7EE
:101410000907090E002804DB00F1E02080F8001421
:10142000704700F00F0000F1E02080F8141D7047B5
:1014300002E008C8121F08C1002AFAD1704770479D
:10144000002001E001C1121F002AFBD1704741407A
:1014500081EA0111C9B20A0242EA102080EA1110A1
:1014600080EAC10070470000FFF708F8FFF78CFE24
:10147000FFF7B8FDFFF734FE00211048FFF74CFDE1
:101480000F48816921F400618161FFF707FB0121A9
:101490000020FFF783F80B4C00252078012804D1A9
:1014A000257001210020FFF779F860780128F4D138
:1014B000657001210020FFF771F8EEE7D4000020ED
:1014C00000100240C000002070B5154C20790025A6
:1014D00008B3A078411CA170E8B92078E17888426F
:1014E00005D300F08FF8E088401CE08013E00C4941
:1014F00008310A5C607801218140401C0A4060701C
:1015000008210848FEF7A6FF6078062803D3657017
:101510002078401C2070A078072800D9A57070BDE5
:1015200000000020000C01402DE9F0430D46C91CCD
:10153000064600242D4B4FF6FF70CFB24D2D02D939
:101540000020BDE8F083DFF8A480A8F1100800BFF8
:1015500098F804100029FBD13946FFF778FF23499A
:10156000A03101EB1712894612781A5507F00F02C5
:10157000641C8A5C1A550027641C13E0F15DFFF7B8
:1015800066FFF15D09EB111109781955641CE1B290
:10159000F45D04F00F0419F804205A54491C7F1C10
:1015A000CCB2FFB2AF42E9D3C04382B2C2F3031060
:1015B00019F800001855641CE0B202F00F0419F885
:1015C00004401C54401C09EB1234C0B224781C5453
:1015D000401CC2F30322C0B219F80210195409309A
:1015E00088F8030000F004F80120AAE710000020AA
:1015F0000348002101704170817001210171704721
:101600000000002010B5002208210348FEF722FF49
:1016100002490020087110BD000C014000000020AC
:10162000024801790029FCD1704700000000002029
:101630000000000000000000010203040607080982
:101640006016000800000020D400000030140008DC
:1016500034170008D40000204C0400004014000897
:1016600000000000000000002A2A2A2A2A2A382C1A
:10167000000000000000000000000000000000006A
:10168000000000000000000000000000000000005A
:10169000000000000000000000000000000000004A
:1016A000000000000000000000000000000000003A
:1016B000000000000000000000000000000000002A
:1016C000000000000000000000000000000000001A
:1016D000000000000000000000000000000000000A
:1016E00000000000000000000000000000000000FA
:1016F00000000000000000000000000000000000EA
:1017000000000000000000000000000000000000D9
:101710000D0E131516191A1C232526292A2C3234CE
:1017200000000000010000001000000000000000A8
:041730000024F4009D
:04000005080000ED02
:00000001FF
